:100000000C942A000C9447000C9447000C94470071
:100010000C9447000C9447000C9447000C94470044
:100020000C9447000C9447000C9447000C94470034
:100030000C9447000C9447000C9447000C94470024
:100040000C9447000C9447000C9447000C94470014
:100050000C94470011241FBECFE5D8E0DEBFCDBF12
:1000600012E0A0E6B0E0ECE2FCE202C005900D92E6
:10007000A637B107D9F712E0A6E7B2E001C01D929A
:10008000A837B107E1F70E945A150C9414160C9486
:100090000000EF92FF920F931F937B018C0120E0F1
:1000A00030E040E05FE40E94F50388238CF0C80153
:1000B000B70120E030E040E05FE40E94C1010E940F
:1000C00055049B01AC01205030404040504806C0D0
:1000D000C801B7010E9455049B01AC01B901CA01D6
:1000E0001F910F91FF90EF900895A0E0B0E0EBE733
:1000F000F0E00C94DD15DC012B01FA019C919230AB
:1001000008F439C1EB018881823008F433C194309E
:1001100069F4843009F02FC111969C91119789815F
:10012000981709F428C1AEE6B1E025C1843009F47E
:1001300021C18230A9F4923009F01DC19A01AD01AC
:1001400088E0EA010990AE01E90109929E0181501F
:10015000C1F7E201898111969C918923818308C1AD
:10016000923009F407C112962D903C901397EB0141
:100170008A819B811496AD90BD90CD90DC901797AD
:10018000EC80FD800E811F819101281B390BB90184
:1001900037FF04C066277727621B730B6032710537
:1001A0000CF061C0121613066CF537014801062EDB
:1001B00004C096948794779467940A94D2F721E0C8
:1001C00030E040E050E004C0220F331F441F551FB1
:1001D0006A95D2F721503040404050402E213F21B7
:1001E00040235123211531054105510521F021E01E
:1001F00030E040E050E079018A01E628F72808293C
:1002000019293CC0232BD1F1260E371E350146019A
:10021000062E04C096948794779467940A94D2F734
:1002200021E030E040E050E004C0220F331F441FC3
:10023000551F6A95D2F721503040404050402A2146
:100240003B214C215D21211531054105510521F04E
:1002500021E030E040E050E059016A01A628B728CB
:10026000C828D9280BC0821593052CF01C01AA249C
:10027000BB24650103C0EE24FF24870111969C91E5
:10028000D20111968C91981709F445C0992339F041
:10029000A80197012A193B094C095D0906C0A6016E
:1002A00095012E193F09400B510B57FD08C01182D3
:1002B0003382228224833583468357831DC081E0A5
:1002C00081833382228288279927DC01821B930B4A
:1002D000A40BB50B84839583A683B7830DC0220F2F
:1002E000331F441F551F24833583468357838281E0
:1002F000938101979383828324813581468157813D
:10030000DA01C9010197A109B1098F5F9F4FAF4F72
:10031000BF4328F30BC0918333822282EA0CFB1C7B
:100320000C1D1D1DE482F5820683178383E0808304
:10033000248135814681578157FF1AC0C901AA27F8
:1003400097FDA095BA2F81709070A070B0705695EF
:10035000479537952795822B932BA42BB52B848318
:100360009583A683B7838281938101969383828349
:10037000DF0101C0D201CD01CDB7DEB7E2E10C94BF
:10038000F915A0E2B0E0E7ECF1E00C94E91569831F
:100390007A838B839C832D833E834F835887E9E048
:1003A000EE2EF12CEC0EFD1ECE010196B7010E943F
:1003B00046068E010F5E1F4FCE010596B8010E94C2
:1003C00046068A8991E089278A8BC701B801AE0168
:1003D000475E5F4F0E9475000E947105A096E6E09F
:1003E0000C940516A0E2B0E0E8EFF1E00C94E915FA
:1003F00069837A838B839C832D833E834F835887C5
:10040000F9E0EF2EF12CEC0EFD1ECE010196B701A6
:100410000E9446068E010F5E1F4FCE010596B80161
:100420000E944606C701B801AE01475E5F4F0E94B9
:1004300075000E947105A096E6E00C940516A0E2F6
:10044000B0E0E5E2F2E00C94DD1569837A838B83FA
:100450009C832D833E834F835887CE010196BE0136
:10046000675F7F4F0E944606CE010596BE016F5E14
:100470007F4F0E9446069985923088F089898230A4
:10048000C8F0943019F4823051F404C0843029F457
:10049000923081F48EE691E0C6C0923049F420E0BB
:1004A0009A858A89981321E02A87CE010996BBC0D4
:1004B000823049F420E09A858A89981321E02A8BBA
:1004C000CE014196B0C02D843E844F8458886D88FB
:1004D0007E888F88988CEE24FF248701AA24BB2471
:1004E000650140E050E060E070E0E0E0F0E0C10174
:1004F00081709070892BE9F0E60CF71C081D191D1E
:100500009A01AB012A0D3B1D4C1D5D1D80E090E062
:10051000A0E0B0E0E614F7040805190520F481E036
:1005200090E0A0E0B0E0BA01A901480F591F6A1F8E
:100530007B1FAA0CBB1CCC1CDD1C97FE08C081E0F5
:1005400090E0A0E0B0E0A82AB92ACA2ADB2A3196B6
:10055000E032F10549F0660C771C881C991C569412
:10056000479437942794C3CFFA85EA892B893C892D
:100570008B859C85280F391F2E5F3F4F17C0CA01FE
:1005800081709070892B61F016950795F794E79428
:1005900080E090E0A0E0B0E8E82AF92A0A2B1B2BC3
:1005A00076956795579547952F5F3F4F77FDE7CF36
:1005B0000CC0440F551F661F771F17FD4160EE0CDE
:1005C000FF1C001F111F21503040403090E05907A0
:1005D00090E0690790E4790760F32B8F3C8FDB0193
:1005E000CA018F779070A070B07080349105A1051A
:1005F000B10561F447FD0AC0E114F10401051105DC
:1006000029F0405C5F4F6F4F7F4F40781A8EFE1786
:1006100011F081E08A8F4D8F5E8F6F8F78A383E01A
:10062000898FCE0149960E947105A096E2E10C9453
:10063000F915A8E1B0E0EFE1F3E00C94E51569836A
:100640007A838B839C832D833E834F835887B9E0C5
:10065000EB2EF12CEC0EFD1ECE010196B7010E948F
:1006600046068E010F5E1F4FCE010596B8010E940F
:1006700046062985223008F47EC03989323010F4CC
:10068000B8017CC08A859A8989278A87243011F02D
:10069000223031F4231709F06EC06EE671E06EC0AF
:1006A000343039F41D861E861F86188A1C861B86E8
:1006B00004C0323021F484E08987B7015FC02B8504
:1006C0003C858B899C89281B390B3C872B87ED84C3
:1006D000FE840F851889AD88BE88CF88D88CEA142F
:1006E000FB040C051D0540F4EE0CFF1C001F111F40
:1006F000215030403C872B8720E030E040E050E044
:1007000080E090E0A0E0B0E460E070E0EA14FB0478
:100710000C051D0540F0282B392B4A2B5B2BEA18C2
:10072000FB080C091D09B695A79597958795EE0CC2
:10073000FF1C001F111F6F5F7F4F6F31710531F775
:10074000DA01C9018F779070A070B0708034910584
:10075000A105B10561F427FD0AC0E114F10401050A
:10076000110529F0205C3F4F4F4F5F4F20782D87B8
:100770003E874F87588BBE01675F7F4FCB010E943A
:1007800071056896EAE00C940116A8E1B0E0EBEC84
:10079000F3E00C94E91569837A838B839C832D8322
:1007A0003E834F83588789E0E82EF12CEC0EFD1E26
:1007B000CE010196B7010E9446068E010F5E1F4FC3
:1007C000CE010596B8010E9446068985823040F028
:1007D0008989823028F0C701B8010E94BE0601C095
:1007E0008FEF6896E6E00C940516A8E1B0E0EBEF19
:1007F000F3E00C94E91569837A838B839C832D83C2
:100800003E834F83588789E0E82EF12CEC0EFD1EC5
:10081000CE010196B7010E9446068E010F5E1F4F62
:10082000CE010596B8010E9446068985823040F0C7
:100830008989823028F0C701B8010E94BE0601C034
:100840008FEF6896E6E00C940516A8E1B0E0EBE2C5
:10085000F4E00C94E91569837A838B839C832D8360
:100860003E834F83588789E0E82EF12CEC0EFD1E65
:10087000CE010196B7010E9446068E010F5E1F4F02
:10088000CE010596B8010E9446068985823040F067
:100890008989823028F0C701B8010E94BE0601C0D4
:1008A00081E06896E6E00C940516ACE0B0E0EBE57C
:1008B000F4E00C94ED1569837A838B839C83CE01DD
:1008C0000196BE016B5F7F4F0E9446068D8182308C
:1008D00061F1823050F1843021F48E81882351F10E
:1008E0002EC02F81388537FD20C06E812F31310514
:1008F0001CF06623F9F023C08EE190E0821B930B7D
:1009000029853A854B855C8504C056954795379572
:1009100027958A95D2F76623B1F05095409530958A
:1009200021953F4F4F4F5F4F0EC020E030E040E039
:1009300050E009C02FEF3FEF4FEF5FE704C020E02A
:1009400030E040E050E8B901CA012C96E2E00C9496
:100950000916A8E0B0E0EFEAF4E00C94E5157B019D
:100960008C01611571058105910519F482E0898377
:1009700060C083E089838EE1C82ED12CDC82CB82DB
:10098000ED82FE820F831887C801B7010E942205FD
:10099000FC013197F7FF3BC0222733272E1B3F0B6B
:1009A00057016801022E04C0D694C794B794A79447
:1009B0000A94D2F740E050E060E070E081E090E01F
:1009C000A0E0B0E004C0880F991FAA1FBB1F2A95A2
:1009D000D2F70197A109B1098E219F21A023B1234C
:1009E0000097A105B10521F041E050E060E070E022
:1009F0004A295B296C297D294D835E836F83788723
:100A00008EE190E08E1B9F0B9C838B8312C03097EE
:100A100081F00E2E04C0EE0CFF1C001F111F0A9463
:100A2000D2F7ED82FE820F831887CE1ADF0ADC82AE
:100A3000CB821A82CE0101960E9471052896EAE0C7
:100A40000C940116EF92FF920F931F937B018C0180
:100A500080E0E81680E0F80681E0080780E01807EB
:100A600088F48FEFE816F1040105110531F028F044
:100A700088E090E0A0E0B0E017C080E090E0A0E067
:100A8000B0E012C080E0E81680E0F80680E00807D9
:100A900081E0180728F088E190E0A0E0B0E004C011
:100AA00080E190E0A0E0B0E020E230E040E050E003
:100AB000281B390B4A0B5B0B04C016950795F7945E
:100AC000E7948A95D2F7F701EA58FE4F8081281BF8
:100AD000310941095109C9011F910F91FF90EF9010
:100AE0000895DF92EF92FF920F931F93FC01E48031
:100AF000F58006811781D1808081823048F480E0C2
:100B000090E0A0E1B0E0E82AF92A0A2B1B2BA5C04F
:100B1000843009F49FC0823021F4EE24FF24870141
:100B200005C0E114F1040105110519F4E0E0F0E05D
:100B300096C0628173819FEF623879070CF05BC0C9
:100B400022E83FEF261B370B2A3131052CF020E03D
:100B500030E040E050E02AC0B801A701022E04C0F6
:100B600076956795579547950A94D2F781E090E07E
:100B7000A0E0B0E004C0880F991FAA1FBB1F2A95F0
:100B8000D2F70197A109B1098E219F21A023B1239A
:100B90000097A105B10521F081E090E0A0E0B0E070
:100BA0009A01AB01282B392B4A2B5B2BDA01C901A7
:100BB0008F779070A070B07080349105A105B10559
:100BC00039F427FF09C0205C3F4F4F4F5F4F04C0EF
:100BD000215C3F4F4F4F5F4FE0E0F0E02030A0E05E
:100BE0003A07A0E04A07A0E45A0710F0E1E0F0E07D
:100BF00079018A0127C06038710564F5FB01E1586D
:100C0000FF4FD801C7018F779070A070B07080340B
:100C10009105A105B10539F4E7FE0DC080E490E02F
:100C2000A0E0B0E004C08FE390E0A0E0B0E0E80E08
:100C3000F91E0A1F1B1F17FF05C016950795F7948D
:100C4000E794319687E016950795F794E7948A958F
:100C5000D1F705C0EE24FF248701EFEFF0E06E2FFF
:100C6000679566276795902F9F77D794DD24D79453
:100C70008E2F8695492F462B582F5D29B701CA0123
:100C80001F910F91FF90EF90DF900895FC01DB0121
:100C9000408151812281622F6F7770E0221F2227CD
:100CA000221F9381892F880F822B282F30E0991FD4
:100CB0009927991F11969C93119721153105A9F534
:100CC000411551056105710511F482E037C082E8D4
:100CD0009FEF13969C938E9312979A01AB0167E056
:100CE000220F331F441F551F6A95D1F783E08C9361
:100CF0000DC0220F331F441F551F12968D919C91DA
:100D00001397019713969C938E931297203080E04F
:100D1000380780E0480780E4580758F314962D936D
:100D20003D934D935C93179708952F3F310579F4C8
:100D3000411551056105710519F484E08C930895FE
:100D400064FF03C081E08C9312C01C9210C02F5727
:100D5000304013963C932E93129783E08C9387E058
:100D6000440F551F661F771F8A95D1F7706414963C
:100D70004D935D936D937C93179708951F93DC01BA
:100D8000FB019C91923008F447C08081823008F4C6
:100D900043C0943051F411961C91843099F58181AF
:100DA000682F70E0611B71093FC0843021F09230E0
:100DB00031F48230B9F18181882389F12DC01196F7
:100DC0001C9111978230F1F081811817D9F4129695
:100DD0002D913C911397828193818217930794F010
:100DE00028173907BCF014968D919D910D90BC91F8
:100DF000A02D2481358146815781281739074A075C
:100E00005B0718F4112341F00AC082179307A40767
:100E1000B50740F4112319F061E070E005C06FEFF1
:100E20007FEF02C060E070E0CB011F910895DF9377
:100E3000CF93CDB7DEB727970FB6F894DEBF0FBEBE
:100E4000CDBF89836A834B838B81882309F074C06B
:100E50008981282F30E03F832E838E819F818130CE
:100E6000910559F12E813F81223031052CF48E817C
:100E70009F81009769F0D2C02E813F8122303105D9
:100E800089F18E819F818330910509F440C0C6C0ED
:100E9000AAE3B0E0EAE3F0E08081482F8A81282FBE
:100EA00030E081E090E0022E02C0880F991F0A9482
:100EB000E2F7809584238C93B1C0A7E3B0E0E7E329
:100EC000F0E08081482F8A81282F30E081E090E097
:100ED000022E02C0880F991F0A94E2F7809584239E
:100EE0008C939CC0A4E3B0E0E4E3F0E08081482F61
:100EF0008A81282F30E081E090E0022E02C0880F26
:100F0000991F0A94E2F7809584238C9387C0A1E30C
:100F1000B0E0E1E3F0E08081482F8A81282F30E0C3
:100F200081E090E0022E02C0880F991F0A94E2F738
:100F3000809584238C9372C08B81813009F06EC0C0
:100F40008981282F30E03D832C838C819D818130E5
:100F5000910549F12C813D81223031052CF48C81A1
:100F60009D81009761F05AC02C813D81223031056E
:100F700071F18C819D8183309105E9F14FC0AAE325
:100F8000B0E0EAE3F0E08081482F8A81282F30E04A
:100F900081E090E0022E02C0880F991F0A94E2F7C8
:100FA000842B8C933BC0A7E3B0E0E7E3F0E08081C3
:100FB000482F8A81282F30E081E090E0022E02C085
:100FC000880F991F0A94E2F7842B8C9327C0A4E31F
:100FD000B0E0E4E3F0E08081482F8A81282F30E000
:100FE00081E090E0022E02C0880F991F0A94E2F778
:100FF000842B8C9313C0A1E3B0E0E1E3F0E08081A7
:10100000482F8A81282F30E081E090E0022E02C034
:10101000880F991F0A94E2F7842B8C9327960FB6BA
:10102000F894DEBF0FBECDBFCF91DF910895DF935F
:10103000CF93CDB7DEB727970FB6F894DEBF0FBEBC
:10104000CDBF89836A834B838B81813009F06FC068
:101050008981282F30E03F832E838E819F818130CC
:10106000910549F12E813F81223031052CF48E818A
:101070009F81009761F0D2C02E813F8122303105DF
:1010800071F18E819F8183309105E9F1C7C0ABE397
:10109000B0E0EBE3F0E08081482F8A81282F30E038
:1010A00081E090E0022E02C0880F991F0A94E2F7B7
:1010B000842B8C93B3C0A8E3B0E0E8E3F0E0808138
:1010C000482F8A81282F30E081E090E0022E02C074
:1010D000880F991F0A94E2F7842B8C939FC0A5E395
:1010E000B0E0E5E3F0E08081482F8A81282F30E0EE
:1010F00081E090E0022E02C0880F991F0A94E2F767
:10110000842B8C938BC0A2E3B0E0E2E3F0E080811B
:10111000482F8A81282F30E081E090E0022E02C023
:10112000880F991F0A94E2F7842B8C9377C08B81E8
:10113000882309F073C08981282F30E03D832C83F8
:101140008C819D818130910559F12C813D81223026
:1011500031052CF48C819D81009769F05FC02C8152
:101160003D812230310589F18C819D81833091054B
:1011700009F440C053C0ABE3B0E0EBE3F0E08081A2
:10118000482F8A81282F30E081E090E0022E02C0B3
:10119000880F991F0A94E2F7809584238C933EC0B0
:1011A000A8E3B0E0E8E3F0E08081482F8A81282FAF
:1011B00030E081E090E0022E02C0880F991F0A946F
:1011C000E2F7809584238C9329C0A5E3B0E0E5E3A2
:1011D000F0E08081482F8A81282F30E081E090E084
:1011E000022E02C0880F991F0A94E2F7809584238B
:1011F0008C9314C0A2E3B0E0E2E3F0E08081482FDA
:101200008A81282F30E081E090E0022E02C0880F12
:10121000991F0A94E2F7809584238C9327960FB642
:10122000F894DEBF0FBECDBFCF91DF910895DF935D
:10123000CF9300D000D000D0CDB7DEB789836A83CA
:101240005C834B838981282F30E03E832D834D8141
:101250005E814130510559F18D819E818230910529
:1012600034F42D813E812115310569F05BC04D813B
:101270005E814230510579F18D819E8183309105E7
:1012800009F43DC04FC0E9E3F0E08081282F30E051
:101290008A81882F90E0A90102C0559547958A95CB
:1012A000E2F7CA018170EB81FC8180833BC0E6E3F9
:1012B000F0E08081282F30E08A81882F90E0A9011A
:1012C00002C0559547958A95E2F7CA018170EB8176
:1012D000FC81808327C0E3E3F0E08081282F30E0A9
:1012E0008A81882F90E0A90102C0559547958A957B
:1012F000E2F7CA018170EB81FC81808313C0E0E3D7
:10130000F0E08081282F30E08A81882F90E0A901C9
:1013100002C0559547958A95E2F7CA018170EB8125
:10132000FC81808326960FB6F894DEBF0FBECDBF3A
:10133000CF91DF910895DF93CF9300D000D0CDB748
:10134000DEB789836A838981282F30E03C832B8331
:101350008B819C8181309105D1F02B813C812230A1
:1013600031052CF48B819C81009761F01EC02B818C
:101370003C812230310581F08B819C818330910545
:1013800081F013C0EAE3F0E08A8180830EC0E7E3D6
:10139000F0E08A81808309C0E4E3F0E08A81808301
:1013A00004C0E1E3F0E08A8180830F900F900F90FA
:1013B0000F90CF91DF910895DF93CF9300D000D0AD
:1013C000CDB7DEB789836A838981282F30E03C83DB
:1013D0002B838B819C8181309105D1F02B813C81C5
:1013E000223031052CF48B819C81009761F01EC066
:1013F0002B813C812230310581F08B819C818330AF
:10140000910581F013C0EBE3F0E08A8180830EC088
:10141000E8E3F0E08A81808309C0E5E3F0E08A81B7
:10142000808304C0E2E3F0E08A8180830F900F9014
:101430000F900F90CF91DF910895DF93CF9300D05D
:1014400000D00F92CDB7DEB789837B836A83898111
:10145000282F30E03D832C838C819D818130910544
:10146000E1F02C813D81223031052CF48C819D816D
:10147000009761F026C02C813D8122303105A1F01A
:101480008C819D8183309105B1F01BC0EBE3F0E0CE
:101490008081EA81FB81808314C0E8E3F0E08081F1
:1014A000EA81FB8180830DC0E5E3F0E08081EA8181
:1014B000FB81808306C0E2E3F0E08081EA81FB816A
:1014C00080830F900F900F900F900F90CF91DF912E
:1014D0000895DF93CF93CDB7DEB7AFE5B0E0EFE58A
:1014E000F0E0808180688C93CF91DF910895DF9345
:1014F000CF93CDB7DEB7AFE5B0E0EFE5F0E08081A8
:101500008F778C93CF91DF910895CF92EF920F93C5
:10151000DF93CF93CDB7DEB728970FB6F894DEBF31
:101520000FBECDBF9A8389836B834C832D830E833B
:10153000EF82C88681E06C8148850E94D7128E8137
:101540006C814D810E9476108B81282F30E089813B
:101550009A81B9014C812F810E94311280E06C8107
:1015600048850E94D71228960FB6F894DEBF0FBEAA
:10157000CDBFCF91DF910F91EF90CF900895CF9293
:10158000EF920F93DF93CF93CDB7DEB728970FB6C7
:10159000F894DEBF0FBECDBF9A8389836B834C83E3
:1015A0002D830E83EF82C88681E06C8148850E947E
:1015B000D7128E816C814D810E9476108B81282FED
:1015C00030E089819A81B9014C812F810E943112CA
:1015D00080E06C8148850E94D71228960FB6F89457
:1015E000DEBF0FBECDBFCF91DF910F91EF90CF90B7
:1015F0000895CF92EF920F93DF93CF93CDB7DEB7DD
:1016000028970FB6F894DEBF0FBECDBF9A838983AB
:101610006B834C832D830E83EF82C88681E06C81BF
:1016200048850E94D7128E816C814D810E94761070
:101630008B81282F30E089819A81B9014C812F81DB
:101640000E94311280E06C8148850E94D712289652
:101650000FB6F894DEBF0FBECDBFCF91DF910F91D3
:10166000EF90CF900895CF92EF920F93DF93CF93A7
:10167000CDB7DEB728970FB6F894DEBF0FBECDBF4B
:101680009A8389836B834C832D830E83EF82C88674
:1016900081E06C8148850E94D7128E816C814D81DA
:1016A0000E9476108B81282F30E089819A81B901C0
:1016B0004C812F810E94311280E06C8148850E940C
:1016C000D71228960FB6F894DEBF0FBECDBFCF91CC
:1016D000DF910F91EF90CF900895CF92EF920F93FB
:1016E000DF93CF93CDB7DEB7C054D0400FB6F89498
:1016F000DEBF0FBECDBF9AAF89AF6BAF4CAF2DAF82
:101700000EAFEFAEFE01E05CFF4FC08289AD9AAD37
:101710006BAD4CAD2DAD0EADEFACFE01E05CFF4FFF
:10172000C0800E94330B80E090E0A8ECB2E48DAB67
:101730009EABAFABB8AF6DA97EA98FA998AD20E0E5
:1017400030E04AEF54E40E941F02DC01CB0189AB78
:101750009AABABABBCAB69A97AA98BA99CA920E0D9
:1017600030E040E85FE30E94250488232CF481E008
:1017700090E098AB8FA73FC069A97AA98BA99CA9D3
:1017800020E03FEF4FE757E40E94C50318164CF5E1
:101790006DA97EA98FA998AD20E030E040E251E428
:1017A0000E941F02DC01CB01BC01CD010E94490057
:1017B000DC01CB0198AB8FA70FC088EC90E09EA70F
:1017C0008DA78DA59EA50197F1F79EA78DA78FA543
:1017D00098A9019798AB8FA78FA598A9009769F74B
:1017E00014C069A97AA98BA99CA90E944900DC01AF
:1017F000CB0198AB8FA78FA598A99CA78BA78BA58A
:101800009CA50197F1F79CA78BA789AD9AAD6BAD0D
:101810004CAD2DAD0EADEFACFE01E05CFF4FC080D6
:101820000E94BF0A80E090E0A8ECB2E48FA398A7E2
:10183000A9A7BAA76FA178A589A59AA520E030E04D
:101840004AEF54E40E941F02DC01CB018BA39CA34E
:10185000ADA3BEA36BA17CA18DA19EA120E030E031
:1018600040E85FE30E94250488232CF481E090E0A7
:101870009AA389A33FC06BA17CA18DA19EA120E06A
:101880003FEF4FE757E40E94C50318164CF56FA1D0
:1018900078A589A59AA520E030E040E251E40E94B5
:1018A0001F02DC01CB01BC01CD010E944900DC011B
:1018B000CB019AA389A30FC088EC90E098A38F8FE7
:1018C0008F8D98A10197F1F798A38F8F89A19AA185
:1018D00001979AA389A389A19AA1009769F714C0D7
:1018E0006BA17CA18DA19EA10E944900DC01CB01CE
:1018F0009AA389A389A19AA19E8F8D8F8D8D9E8D8C
:101900000197F1F79E8F8D8F89AD9AAD6BAD4CAD80
:101910002DAD0EADEFACFE01E05CFF4FC0800E942C
:10192000850A80E090E0A8ECB2E4898F9A8FAB8FB3
:10193000BC8F698D7A8D8B8D9C8D20E030E04AEFD5
:1019400054E40E941F02DC01CB018D8B9E8BAF8B78
:10195000B88F6D897E898F89988D20E030E040E8CE
:101960005FE30E94250488232CF481E090E09C8BA7
:101970008B8B3FC06D897E898F89988D20E03FEFEA
:101980004FE757E40E94C50318164CF5698D7A8D10
:101990008B8D9C8D20E030E040E251E40E941F02DC
:1019A000DC01CB01BC01CD010E944900DC01CB016F
:1019B0009C8B8B8B0FC088EC90E09A8B898B8989EC
:1019C0009A890197F1F79A8B898B8B899C8901976A
:1019D0009C8B8B8B8B899C89009769F714C06D89D0
:1019E0007E898F89988D0E944900DC01CB019C8BF8
:1019F0008B8B8B899C89988B8F878F859889019792
:101A0000F1F7988B8F8789AD9AAD6BAD4CAD2DAD4D
:101A10000EADEFACFE01E05CFF4FC0800E94F90A02
:101A200080E090E0A8E4B2E48B879C87AD87BE8716
:101A30006B857C858D859E8520E030E04AEF54E4FF
:101A40000E941F02DC01CB018F839887A987BA8788
:101A50006F81788589859A8520E030E040E85FE3F2
:101A60000E94250488232CF481E090E09E838D83DE
:101A70003FC06F81788589859A8520E03FEF4FE7E9
:101A800057E40E94C50318164CF56B857C858D853F
:101A90009E8520E030E040E251E40E941F02DC011C
:101AA000CB01BC01CD010E944900DC01CB019E832A
:101AB0008D830FC088EC90E09C838B838B819C810D
:101AC0000197F1F79C838B838D819E8101979E8383
:101AD0008D838D819E81009769F714C06F81788511
:101AE00089859A850E944900DC01CB019E838D8304
:101AF0008D819E819A83898389819A810197F1F7EB
:101B00009A838983C05CDF4F0FB6F894DEBF0FBEA7
:101B1000CDBFCF91DF910F91EF90CF900895CF92ED
:101B2000EF920F931F93DF93CF93CDB7DEB7C754D8
:101B3000D0400FB6F894DEBF0FBECDBFFE01E95B0B
:101B4000FF4F8083FE01E95BFF4F8081882F90E08B
:101B50008133910509F09CC289E190E064E640E0A0
:101B600027E000E00F2EF6E0EF2EF02D0F2EF5E02F
:101B7000CF2EF02D0E94330BFE01ED5BFF4F80E076
:101B800090E0A8ECB2E480839183A283B3838E01BA
:101B9000015C1F4FFE01ED5BFF4F6081718182810F
:101BA000938120E030E04AEF54E40E941F02DC0100
:101BB000CB01F80180839183A283B383FE01FF965A
:101BC000608171818281938120E030E040E85FE3B1
:101BD0000E94250488232CF481E090E09EAF8DAF15
:101BE00046C0FE01FF96608171818281938120E071
:101BF0003FEF4FE757E40E94C503181664F5FE0156
:101C0000ED5BFF4F608171818281938120E030E044
:101C100040E251E40E941F02DC01CB01BC01CD0176
:101C20000E944900DC01CB019EAF8DAF0FC088EC54
:101C300090E09CAF8BAF8BAD9CAD0197F1F79CAF63
:101C40008BAF8DAD9EAD01979EAF8DAF8DAD9EAD2F
:101C5000009769F716C0FE01FF966081718182814D
:101C600093810E944900DC01CB019EAF8DAF8DAD09
:101C70009EAD9AAF89AF89AD9AAD0197F1F79AAF52
:101C800089AF80EA9FE06AE043E025E001E00F2EA3
:101C9000F6E0EF2EF02D0F2EF7E0CF2EF02D0E9464
:101CA000850A80E090E0A8ECB2E48DAB9EABAFABD0
:101CB000B8AF6DA97EA98FA998AD20E030E04AEFBA
:101CC00054E40E941F02DC01CB0189AB9AABABABA1
:101CD000BCAB69A97AA98BA99CA920E030E040E8B7
:101CE0005FE30E94250488232CF481E090E098AB08
:101CF0008FA73FC069A97AA98BA99CA920E03FEFD3
:101D00004FE757E40E94C50318164CF56DA97EA94C
:101D10008FA998AD20E030E040E251E40E941F021C
:101D2000DC01CB01BC01CD010E944900DC01CB01EB
:101D300098AB8FA70FC088EC90E09EA78DA78DA5CC
:101D40009EA50197F1F79EA78DA78FA598A901974A
:101D500098AB8FA78FA598A9009769F714C069A9B8
:101D60007AA98BA99CA90E944900DC01CB0198AB00
:101D70008FA78FA598A99CA78BA78BA59CA501973A
:101D8000F1F79CA78BA782E390E064E643E022E0B2
:101D900000E00F2EF3E0EF2EF02DCC246894C2F873
:101DA0000E94BF0A80E090E0A8ECB2E48FA398A75D
:101DB000A9A7BAA76FA178A589A59AA520E030E0C8
:101DC0004AEF54E40E941F02DC01CB018BA39CA3C9
:101DD000ADA3BEA36BA17CA18DA19EA120E030E0AC
:101DE00040E85FE30E94250488232CF481E090E022
:101DF0009AA389A33FC06BA17CA18DA19EA120E0E5
:101E00003FEF4FE757E40E94C50318164CF56FA14A
:101E100078A589A59AA520E030E040E251E40E942F
:101E20001F02DC01CB01BC01CD010E944900DC0195
:101E3000CB019AA389A30FC088EC90E098A38F8F61
:101E40008F8D98A10197F1F798A38F8F89A19AA1FF
:101E500001979AA389A389A19AA1009769F714C051
:101E60006BA17CA18DA19EA10E944900DC01CB0148
:101E70009AA389A389A19AA19E8F8D8F8D8D9E8D06
:101E80000197F1F79E8F8D8F89E190E064E640E045
:101E900027E000E00F2EF6E0EF2EF02D0F2EF5E0FC
:101EA000CF2EF02D0E94F90A80E090E0A8ECB2E479
:101EB000898F9A8FAB8FBC8F698D7A8D8B8D9C8D1E
:101EC00020E030E04AEF54E40E941F02DC01CB0125
:101ED0008D8B9E8BAF8BB88F6D897E898F89988D06
:101EE00020E030E040E85FE30E94250488232CF4E2
:101EF00081E090E09C8B8B8B3FC06D897E898F89C0
:101F0000988D20E03FEF4FE757E40E94C503181675
:101F10004CF5698D7A8D8B8D9C8D20E030E040E210
:101F200051E40E941F02DC01CB01BC01CD010E94E3
:101F30004900DC01CB019C8B8B8B0FC088EC90E0BF
:101F40009A8B898B89899A890197F1F79A8B898B6A
:101F50008B899C8901979C8B8B8B8B899C890097A3
:101F600069F714C06D897E898F89988D0E94490018
:101F7000DC01CB019C8B8B8B8B899C89988B8F8709
:101F80008F8598890197F1F7988B8F8788EC90E07F
:101F90006AE043E025E000E00F2EF6E0EF2EF02DA2
:101FA0000F2EF7E0CF2EF02D0E94850A80E090E002
:101FB000A8ECB2E48B879C87AD87BE876B857C8558
:101FC0008D859E8520E030E04AEF54E40E941F0298
:101FD000DC01CB018F839887A987BA876F817885C9
:101FE00089859A8520E030E040E85FE30E9425047F
:101FF00088232CF481E090E09E838D833FC06F8125
:10200000788589859A8520E03FEF4FE757E40E9465
:10201000C50318164CF56B857C858D859E8520E063
:1020200030E040E251E40E941F02DC01CB01BC0120
:10203000CD010E944900DC01CB019E838D830FC03E
:1020400088EC90E09C838B838B819C810197F1F7D6
:102050009C838B838D819E8101979E838D838D814F
:102060009E81009769F714C06F81788589859A856C
:102070000E944900DC01CB019E838D838D819E816E
:102080009A83898389819A810197F1F79A83898359
:10209000C95BDF4F0FB6F894DEBF0FBECDBFCF9147
:1020A000DF911F910F91EF90CF900895DF93CF9321
:1020B00000D000D0CDB7DEB789836A834B832C83F1
:1020C00089816A8141E00E94170789816B8141E023
:1020D0000E94170789816C8141E00E9417070F90C9
:1020E0000F900F900F90CF91DF910895DF93CF93D2
:1020F00000D00F92CDB7DEB789836A834B83898185
:10210000882331F48A816B8141E00E94170808C05E
:102110008981813029F48A816B8140E00E9417080F
:102120000F900F900F90CF91DF910895DF93CF9391
:10213000CDB7DEB7E2970FB6F894DEBF0FBECDBFC6
:1021400089AB6AAB89A96AA941E00E94170880E0BF
:1021500090E0A0E0B0E48DA79EA7AFA7B8AB6DA5B7
:102160007EA58FA598A92BEA3AEA4AE250E40E949C
:102170001F02DC01CB0189A79AA7ABA7BCA769A561
:102180007AA58BA59CA520E030E040E85FE30E94A3
:10219000250488231CF481E088A791C069A57AA54D
:1021A0008BA59CA520E030E04FE753E40E94C503D7
:1021B00018160CF07BC06DA57EA58FA598A920E010
:1021C00030E04AE754E40E941903DC01CB018CA300
:1021D0009DA3AEA3BFA36CA17DA18EA19FA120E072
:1021E00030E04AEF54E40E941F02DC01CB0188A3D7
:1021F00099A3AAA3BBA368A179A18AA19BA120E06E
:1022000030E040E85FE30E94250488232CF481E05D
:1022100090E09F8F8E8F3FC068A179A18AA19BA17A
:1022200020E03FEF4FE757E40E94C50318164CF536
:102230006CA17DA18EA19FA120E030E040E251E49D
:102240000E941F02DC01CB01BC01CD010E944900AC
:10225000DC01CB019F8F8E8F0FC088EC90E09D8FAB
:102260008C8F8C8D9D8D0197F1F79D8F8C8F8E8D2E
:102270009F8D01979F8F8E8F8E8D9F8D009769F711
:1022800024C068A179A18AA19BA10E944900DC0118
:10229000CB019F8F8E8F8E8D9F8D9B8F8A8F8A8D86
:1022A0009B8D0197F1F79B8F8A8F0FC069A57AA547
:1022B0008BA59CA50E944900DC01CB0188A788A5BD
:1022C000898F898D8A95F1F7898F89A96AA940E05C
:1022D0000E94170880E090E0A0E0B0E48D8B9E8B18
:1022E000AF8BB88F6D897E898F89988D2BEA3AEAFA
:1022F0004AE250E40E941F02DC01CB01898B9A8BD9
:10230000AB8BBC8B69897A898B899C8920E030E012
:1023100040E85FE30E94250488231CF481E0888B59
:1023200091C069897A898B899C8920E030E04FE7E8
:1023300053E40E94C50318160CF07BC06D897E899A
:102340008F89988D20E030E04AE754E40E94190319
:10235000DC01CB018C879D87AE87BF876C857D852F
:102360008E859F8520E030E04AEF54E40E941F02F2
:10237000DC01CB0188879987AA87BB876885798527
:102380008A859B8520E030E040E85FE30E942504D9
:1023900088232CF481E090E09F838E833FC0688582
:1023A00079858A859B8520E03FEF4FE757E40E94BF
:1023B000C50318164CF56C857D858E859F8520E0BC
:1023C00030E040E251E40E941F02DC01CB01BC017D
:1023D000CD010E944900DC01CB019F838E830FC099
:1023E00088EC90E09D838C838C819D810197F1F72F
:1023F0009D838C838E819F8101979F838E838E81A5
:102400009F81009769F724C0688579858A859B85B7
:102410000E944900DC01CB019F838E838E819F81C6
:102420009B838A838A819B810197F1F79B838A83AF
:102430000FC069897A898B899C890E944900DC01D7
:10244000CB01888B8889898389818A95F1F7898373
:10245000E2960FB6F894DEBF0FBECDBFCF91DF91ED
:102460000895DF93CF93CDB7DEB766970FB6F89494
:10247000DEBF0FBECDBF9A8B898B7C8B6B8B4D8B58
:102480002E8B188A1F8682C08D896E890E949610B5
:102490008B899C89CC01A0E0B0E0BC01CD010E94F9
:1024A000A904DC01CB018B879C87AD87BE876B8538
:1024B0007C858D859E8520E030E04AEF54E40E94C3
:1024C0001F02DC01CB018F839887A987BA876F81B0
:1024D000788589859A8520E030E040E85FE30E94B6
:1024E000250488232CF481E090E09E838D833FC0F7
:1024F0006F81788589859A8520E03FEF4FE757E423
:102500000E94C50318164CF56B857C858D859E85CC
:1025100020E030E040E251E40E941F02DC01CB01E8
:10252000BC01CD010E944900DC01CB019E838D835B
:102530000FC088EC90E09C838B838B819C810197FA
:10254000F1F79C838B838D819E8101979E838D8380
:102550008D819E81009769F714C06F817885898588
:102560009A850E944900DC01CB019E838D838D8179
:102570009E819A83898389819A810197F1F79A8351
:1025800089838F8598890196988B8F872F853889C5
:1025900089899A892817390708F476CF66960FB685
:1025A000F894DEBF0FBECDBFCF91DF910895DF93CA
:1025B000CF9300D00F92CDB7DEB789836A834B8368
:1025C0008981813029F48A816B8140E00E9417085B
:1025D0008981882329F48A816B8141E00E94170850
:1025E0000F900F900F90CF91DF910895DF93CF93CD
:1025F000CDB7DEB7AEE4B0E0EEE4F0E08081886015
:102600008C93EAE4F0E081E090E091838083AEE493
:10261000B0E0EEE4F0E08081887F8C93AEE4B0E03F
:10262000EEE4F0E0808182608C93CF91DF91089599
:10263000DF93CF9300D0CDB7DEB79A838983EAE4E6
:10264000F0E089819A81918380830F900F90CF91E0
:10265000DF910895DF93CF9300D000D0CDB7DEB7E0
:102660009C838B83ECE4F0E011821082A8E5B0E05B
:10267000E8E5F0E0808180618C931A82198217C0AE
:10268000E8E5F0E0808182958F70882F90E081707E
:1026900090700097A9F3A8E5B0E0E8E5F0E080814C
:1026A00080618C9389819A8101969A83898329819B
:1026B0003A818B819C812817390710F3AEE4B0E092
:1026C000EEE4F0E080818B7F8C930F900F900F9061
:1026D0000F90CF91DF910895DF93CF9300D00F92A9
:1026E000CDB7DEB780E88B838B818F7B8B838B812B
:1026F00084608B838B8182608B83AAE2B0E0EAE204
:10270000F0E080818B7F8C938B818F7E8B838B819C
:102710008F7D8B838B81877F8B838B818E7F8B8358
:10272000E0E4F0E08B818083ABE2B0E0EBE2F0E04C
:1027300080818D7F8C93ABE2B0E0EBE2F0E08081B2
:102740008E7F8C93AAE2B0E0EAE2F0E080818F779E
:102750008C93AAE2B0E0EAE2F0E080818F7B8C9378
:10276000AAE2B0E0EAE2F0E080818F7D8C93AAE2F9
:10277000B0E0EAE2F0E0808188608C93AAE2B0E009
:10278000EAE2F0E0808180618C9383E390E09A83B9
:102790008983E9E2F0E089818083E0E4F0E08981E7
:1027A0009A81892F992780830F900F900F90CF9156
:1027B000DF910895DF93CF9300D0CDB7DEB79A8332
:1027C0008983EBE2F0E08081829586958770882F7F
:1027D00090E0817090700097A1F3ECE2F0E08981C5
:1027E0008083AAE2B0E0EAE2F0E0208189819A8168
:1027F000892F99278170822B8C930F900F90CF9106
:10280000DF910895DF93CF93CDB7DEB7EBE2F0E031
:102810008081881F8827881F8130C1F7ECE2F0E0B3
:102820008081CF91DF910895DF93CF93CDB7DEB74D
:1028300027970FB6F894DEBF0FBECDBF9C838B8366
:102840006D835F834E831A8219828D818636E9F407
:102850008B819C819C0122953295307F3227207F8D
:1028600032278E819F81B9010E94C915CB01019742
:102870009A838983E9E2F0E089818083E0E4F0E0F3
:1028800089819A81892F992780838D818736E9F400
:102890008B819C819C01220F331F220F331F220F3B
:1028A000331F8E819F81B9010E94C915CB01019709
:1028B0009A838983E9E2F0E089818083E0E4F0E0B3
:1028C00089819A81892F9927808327960FB6F8945A
:1028D000DEBF0FBECDBFCF91DF910895DF93CF93C1
:1028E0000F92CDB7DEB78983EBE2F0E0808182956D
:1028F00086958770882F90E0817090700097A1F383
:10290000ECE2F0E0898180830F90CF91DF91089510
:10291000DF93CF93CDB7DEB7EBE2F0E08081882381
:10292000DCF7ECE2F0E08081CF91DF910895DF9356
:10293000CF9300D0CDB7DEB71A82198205C0898146
:102940009A8101969A83898389819A812EE48032C3
:10295000920728F4EBE2F0E08081882384F7ECE230
:10296000F0E080810F900F90CF91DF910895DF9379
:10297000CF93CDB7DEB761970FB6F894DEBF0FBE29
:10298000CDBF998B888B1F8680C08F85282F30E024
:1029900088899989FC01E20FF31F80810E946E14DF
:1029A0008F858F5F8F8780E090E0A0E8BFE38B8703
:1029B0009C87AD87BE876B857C858D859E8520E055
:1029C00030E04AEF54E40E941F02DC01CB018F8308
:1029D0009887A987BA876F81788589859A8520E04D
:1029E00030E040E85FE30E94250488232CF481E076
:1029F00090E09E838D833FC06F81788589859A851D
:102A000020E03FEF4FE757E40E94C50318164CF54E
:102A10006B857C858D859E8520E030E040E251E429
:102A20000E941F02DC01CB01BC01CD010E944900C4
:102A3000DC01CB019E838D830FC088EC90E09C83EA
:102A40008B838B819C810197F1F79C838B838D8194
:102A50009E8101979E838D838D819E81009769F76A
:102A600014C06F81788589859A850E944900DC01B0
:102A7000CB019E838D838D819E819A8389838981F9
:102A80009A810197F1F79A8389838F85282F30E007
:102A900088899989FC01E20FF31F8081882309F05E
:102AA00074CF61960FB6F894DEBF0FBECDBFCF9145
:102AB000DF910895DF93CF93CDB7DEB783E062E077
:102AC00043E024E00E94561083E065E046E027E002
:102AD0000E94561080E067E046E025E00E94561014
:102AE0000E94690A83E060E040E00E94170783E0EB
:102AF00061E041E00E9417070E946C1380E690E0BD
:102B00000E94B71484E990E00E94B7148CEC90E026
:102B10000E94B7140E948814809376020E94881441
:102B2000809377020E9488148093770280917602C6
:102B3000882F90E08136910509F70E94A015DECF1D
:102B4000DF93CF930F92CDB7DEB719828FEF90E06E
:102B50000E94B71487E291E00E94B7148BE491E0E1
:102B60000E94B7140E94881489830E94881480935D
:102B700077020E9488148093770289818823E9F381
:102B80008981882F90E00E948F0D0F90CF91DF9167
:102B90000895AA1BBB1B51E107C0AA1FBB1FA617A4
:102BA000B70710F0A61BB70B881F991F5A95A9F7F6
:102BB00080959095BC01CD0108952F923F924F9240
:102BC0005F926F927F928F929F92AF92BF92CF92BD
:102BD000DF92EF92FF920F931F93CF93DF93CDB7C6
:102BE000DEB7CA1BDB0B0FB6F894DEBF0FBECDBF3E
:102BF00009942A88398848885F846E847D848C840F
:102C00009B84AA84B984C884DF80EE80FD800C8117
:102C10001B81AA81B981CE0FD11D0FB6F894DEBFFA
:0C2C20000FBECDBFED010895F894FFCF6A
:102C2C000A2A2A2A2A2A2A2A2A2A2A2A2A205765BA
:102C3C006C636F6D6520546F20536D6172742050FE
:102C4C0061726B202A2A2A2A2A2A2A2A2A2A2A2A22
:102C5C002A2A0A0043686F6F736520796F7572209A
:102C6C006D6F64650A2020612D20466F72205061C3
:102C7C00726B204D6F64650A2020622D204C6561BB
:102C8C0076696E67204D6F64650A20002A2A2A2A0D
:102C9C002A2A2A2A2A2A2A2A2A2A2A2A2A2A2A2A88
:102CAC002A2A2A2A2A2A2A2A2A2A2A2A2A2A2A2A78
:102CBC002A2A2A2A2A2A2A2A2A2A2A2A2A0A000AD2
:102CCC002A2A2A2A2A2A2A2A2A2A2A2A20506172BD
:102CDC006B5F4D6F6465202A2A2A2A2A2A2A2A2AFF
:102CEC002A2A2A2A2A0A000A20417661696C616222
:102CFC006C652043656C6C733A0A2020202D2031C2
:102D0C000A202D20320A202D2033000A506C6561D8
:102D1C0073652053656C6563742054686520446545
:102D2C0073697265642043656C6C203A0A0000007C
:102D3C00000000000000000102020303030304046E
:102D4C00040404040404050505050505050505052D
:102D5C00050505050505060606060606060606060D
:102D6C0006060606060606060606060606060606F7
:102D7C0006060606060607070707070707070707DD
:102D8C0007070707070707070707070707070707C7
:102D9C0007070707070707070707070707070707B7
:102DAC0007070707070707070707070707070707A7
:102DBC00070707070707080808080808080808088D
:102DCC000808080808080808080808080808080877
:102DDC000808080808080808080808080808080867
:102DEC000808080808080808080808080808080857
:102DFC000808080808080808080808080808080847
:102E0C000808080808080808080808080808080836
:102E1C000808080808080808080808080808080826
:102E2C000808080808080808080808080808080816
:062E3C0008080808080860
:00000001FF
